{
  "_format": "hh-sol-artifact-1",
  "contractName": "Delivery",
  "sourceName": "contracts/deal.sol",
  "abi": [
    {
      "inputs": [],
      "stateMutability": "nonpayable",
      "type": "constructor"
    },
    {
      "inputs": [],
      "name": "InvalidCode",
      "type": "error"
    },
    {
      "inputs": [],
      "name": "InvalidState",
      "type": "error"
    },
    {
      "inputs": [],
      "name": "OnlyBuyer",
      "type": "error"
    },
    {
      "inputs": [],
      "name": "OnlyOwner",
      "type": "error"
    },
    {
      "inputs": [],
      "name": "OnlySeller",
      "type": "error"
    },
    {
      "anonymous": false,
      "inputs": [
        {
          "indexed": true,
          "internalType": "uint256",
          "name": "_rate",
          "type": "uint256"
        }
      ],
      "name": "ComissionChangedTo",
      "type": "event"
    },
    {
      "anonymous": false,
      "inputs": [
        {
          "indexed": true,
          "internalType": "address",
          "name": "_buyer",
          "type": "address"
        },
        {
          "indexed": true,
          "internalType": "address",
          "name": "_seller",
          "type": "address"
        },
        {
          "indexed": true,
          "internalType": "uint256",
          "name": "_dealId",
          "type": "uint256"
        }
      ],
      "name": "DealComplete",
      "type": "event"
    },
    {
      "anonymous": false,
      "inputs": [
        {
          "indexed": true,
          "internalType": "address",
          "name": "_buyer",
          "type": "address"
        },
        {
          "indexed": true,
          "internalType": "address",
          "name": "_seller",
          "type": "address"
        },
        {
          "indexed": true,
          "internalType": "uint256",
          "name": "_dealId",
          "type": "uint256"
        }
      ],
      "name": "DealIsCalledOff",
      "type": "event"
    },
    {
      "anonymous": false,
      "inputs": [
        {
          "indexed": true,
          "internalType": "address",
          "name": "_buyer",
          "type": "address"
        },
        {
          "indexed": true,
          "internalType": "address",
          "name": "_seller",
          "type": "address"
        },
        {
          "indexed": true,
          "internalType": "uint256",
          "name": "_dealId",
          "type": "uint256"
        }
      ],
      "name": "DeliveryAddedEvent",
      "type": "event"
    },
    {
      "anonymous": false,
      "inputs": [
        {
          "indexed": true,
          "internalType": "address",
          "name": "_buyer",
          "type": "address"
        },
        {
          "indexed": true,
          "internalType": "address",
          "name": "_seller",
          "type": "address"
        },
        {
          "indexed": true,
          "internalType": "uint256",
          "name": "_dealId",
          "type": "uint256"
        }
      ],
      "name": "ItemReceived",
      "type": "event"
    },
    {
      "anonymous": false,
      "inputs": [
        {
          "indexed": true,
          "internalType": "address",
          "name": "contractOwner",
          "type": "address"
        },
        {
          "indexed": true,
          "internalType": "address",
          "name": "_seller",
          "type": "address"
        },
        {
          "indexed": true,
          "internalType": "string",
          "name": "_itemId",
          "type": "string"
        }
      ],
      "name": "ProductIsNotWhatWasPromised",
      "type": "event"
    },
    {
      "anonymous": false,
      "inputs": [
        {
          "indexed": true,
          "internalType": "address",
          "name": "_seller",
          "type": "address"
        },
        {
          "indexed": true,
          "internalType": "uint256",
          "name": "_dealId",
          "type": "uint256"
        }
      ],
      "name": "PurchaseConfirmed",
      "type": "event"
    },
    {
      "anonymous": false,
      "inputs": [
        {
          "indexed": true,
          "internalType": "address",
          "name": "contractOwner",
          "type": "address"
        },
        {
          "indexed": false,
          "internalType": "uint256",
          "name": "_dealId",
          "type": "uint256"
        }
      ],
      "name": "RequestPayFromOwner",
      "type": "event"
    },
    {
      "anonymous": false,
      "inputs": [
        {
          "indexed": true,
          "internalType": "address",
          "name": "_buyer",
          "type": "address"
        },
        {
          "indexed": true,
          "internalType": "address",
          "name": "_seller",
          "type": "address"
        },
        {
          "indexed": true,
          "internalType": "uint256",
          "name": "_dealId",
          "type": "uint256"
        }
      ],
      "name": "SellerRefunded",
      "type": "event"
    },
    {
      "anonymous": false,
      "inputs": [
        {
          "indexed": true,
          "internalType": "address",
          "name": "contractOwner",
          "type": "address"
        },
        {
          "indexed": true,
          "internalType": "uint256",
          "name": "_dealId",
          "type": "uint256"
        }
      ],
      "name": "reportAborted",
      "type": "event"
    },
    {
      "inputs": [
        {
          "internalType": "uint256",
          "name": "_dealId",
          "type": "uint256"
        }
      ],
      "name": "abort",
      "outputs": [],
      "stateMutability": "nonpayable",
      "type": "function"
    },
    {
      "inputs": [
        {
          "internalType": "string",
          "name": "_itemId",
          "type": "string"
        },
        {
          "internalType": "address",
          "name": "_seller",
          "type": "address"
        }
      ],
      "name": "addDeal",
      "outputs": [],
      "stateMutability": "payable",
      "type": "function"
    },
    {
      "inputs": [
        {
          "internalType": "uint256",
          "name": "_rate",
          "type": "uint256"
        }
      ],
      "name": "changeComissionRate",
      "outputs": [
        {
          "internalType": "bool",
          "name": "",
          "type": "bool"
        }
      ],
      "stateMutability": "nonpayable",
      "type": "function"
    },
    {
      "inputs": [
        {
          "internalType": "uint256",
          "name": "_dealId",
          "type": "uint256"
        }
      ],
      "name": "confirmDeal",
      "outputs": [
        {
          "internalType": "string",
          "name": "",
          "type": "string"
        }
      ],
      "stateMutability": "nonpayable",
      "type": "function"
    },
    {
      "inputs": [],
      "name": "dealCount",
      "outputs": [
        {
          "internalType": "uint256",
          "name": "",
          "type": "uint256"
        }
      ],
      "stateMutability": "view",
      "type": "function"
    },
    {
      "inputs": [
        {
          "internalType": "uint256",
          "name": "",
          "type": "uint256"
        }
      ],
      "name": "deals",
      "outputs": [
        {
          "internalType": "uint256",
          "name": "id",
          "type": "uint256"
        },
        {
          "internalType": "uint256",
          "name": "value",
          "type": "uint256"
        },
        {
          "internalType": "string",
          "name": "code",
          "type": "string"
        },
        {
          "internalType": "address",
          "name": "seller",
          "type": "address"
        },
        {
          "internalType": "address",
          "name": "buyer",
          "type": "address"
        },
        {
          "internalType": "enum Delivery.State",
          "name": "state",
          "type": "uint8"
        },
        {
          "internalType": "string",
          "name": "itemId",
          "type": "string"
        }
      ],
      "stateMutability": "view",
      "type": "function"
    },
    {
      "inputs": [
        {
          "internalType": "uint256",
          "name": "_dealId",
          "type": "uint256"
        }
      ],
      "name": "deliveryCalledOff",
      "outputs": [],
      "stateMutability": "nonpayable",
      "type": "function"
    },
    {
      "inputs": [
        {
          "internalType": "uint256",
          "name": "_dealId",
          "type": "uint256"
        },
        {
          "internalType": "string",
          "name": "_code",
          "type": "string"
        }
      ],
      "name": "deliverySuccessful",
      "outputs": [],
      "stateMutability": "nonpayable",
      "type": "function"
    },
    {
      "inputs": [
        {
          "internalType": "uint256",
          "name": "_dealId",
          "type": "uint256"
        }
      ],
      "name": "giveBuyerMoney",
      "outputs": [],
      "stateMutability": "nonpayable",
      "type": "function"
    },
    {
      "inputs": [
        {
          "internalType": "uint256",
          "name": "_dealId",
          "type": "uint256"
        }
      ],
      "name": "giveSellerMoney",
      "outputs": [],
      "stateMutability": "nonpayable",
      "type": "function"
    },
    {
      "inputs": [
        {
          "internalType": "uint256",
          "name": "_dealId",
          "type": "uint256"
        }
      ],
      "name": "productIsntWhatWasPromised",
      "outputs": [],
      "stateMutability": "nonpayable",
      "type": "function"
    }
  ],
  "bytecode": "0x608060405234801561001057600080fd5b5060026001819055506000600381905550336000806101000a81548173ffffffffffffffffffffffffffffffffffffffff021916908373ffffffffffffffffffffffffffffffffffffffff1602179055506127d6806100706000396000f3fe60806040526004361061009c5760003560e01c8063778232ac11610064578063778232ac1461019c578063b151f8c8146101c5578063c237d667146101e1578063d6967f321461020a578063e50701f414610247578063eadb3c9c146102705761009c565b806303988f84146100a15780632f429e64146100e45780634e97b1931461010d5780635cb442bb146101365780636552f84814610173575b600080fd5b3480156100ad57600080fd5b506100c860048036038101906100c39190611d01565b61029b565b6040516100db9796959493929190611e85565b60405180910390f35b3480156100f057600080fd5b5061010b60048036038101906101069190612037565b61043a565b005b34801561011957600080fd5b50610134600480360381019061012f9190611d01565b610771565b005b34801561014257600080fd5b5061015d60048036038101906101589190611d01565b610a5a565b60405161016a9190612093565b60405180910390f35b34801561017f57600080fd5b5061019a60048036038101906101959190611d01565b610c4e565b005b3480156101a857600080fd5b506101c360048036038101906101be9190611d01565b610f83565b005b6101df60048036038101906101da91906120e1565b6111c2565b005b3480156101ed57600080fd5b5061020860048036038101906102039190611d01565b611441565b005b34801561021657600080fd5b50610231600480360381019061022c9190611d01565b61170c565b60405161023e9190612158565b60405180910390f35b34801561025357600080fd5b5061026e60048036038101906102699190611d01565b6117a4565b005b34801561027c57600080fd5b50610285611a37565b6040516102929190612173565b60405180910390f35b60026020528060005260406000206000915090508060000154908060010154908060020180546102ca906121bd565b80601f01602080910402602001604051908101604052809291908181526020018280546102f6906121bd565b80156103435780601f1061031857610100808354040283529160200191610343565b820191906000526020600020905b81548152906001019060200180831161032657829003601f168201915b5050505050908060030160009054906101000a900473ffffffffffffffffffffffffffffffffffffffff16908060040160009054906101000a900473ffffffffffffffffffffffffffffffffffffffff16908060040160149054906101000a900460ff16908060050180546103b7906121bd565b80601f01602080910402602001604051908101604052809291908181526020018280546103e3906121bd565b80156104305780601f1061040557610100808354040283529160200191610430565b820191906000526020600020905b81548152906001019060200180831161041357829003601f168201915b5050505050905087565b816002600082815260200190815260200160002060040160009054906101000a900473ffffffffffffffffffffffffffffffffffffffff1673ffffffffffffffffffffffffffffffffffffffff163373ffffffffffffffffffffffffffffffffffffffff16146104d6576040517f86efbb5500000000000000000000000000000000000000000000000000000000815260040160405180910390fd5b8260018060048111156104ec576104eb611e0e565b5b6002600084815260200190815260200160002060040160149054906101000a900460ff16600481111561052257610521611e0e565b5b14610559576040517fbaf3f0f700000000000000000000000000000000000000000000000000000000815260040160405180910390fd5b83858160405160200161056c919061222a565b60405160208183030381529060405280519060200120600260008381526020019081526020016000206002016040516020016105a891906122d9565b60405160208183030381529060405280519060200120146105f5576040517f6606a46200000000000000000000000000000000000000000000000000000000815260040160405180910390fd5b60008054906101000a900473ffffffffffffffffffffffffffffffffffffffff1673ffffffffffffffffffffffffffffffffffffffff167f33e6c18f449151554dc0d344f2a33fabe90a3f11fd30df2dc02a52f294a128c78860405161065b9190612173565b60405180910390a2866002600089815260200190815260200160002060030160009054906101000a900473ffffffffffffffffffffffffffffffffffffffff1673ffffffffffffffffffffffffffffffffffffffff16600260008a815260200190815260200160002060040160009054906101000a900473ffffffffffffffffffffffffffffffffffffffff1673ffffffffffffffffffffffffffffffffffffffff167f977d335cc268af836f9e8542f5c430c79e387ceb4a005d8aa05350b655fd65d360405160405180910390a4600280600089815260200190815260200160002060040160146101000a81548160ff0219169083600481111561076357610762611e0e565b5b021790555050505050505050565b60008054906101000a900473ffffffffffffffffffffffffffffffffffffffff1673ffffffffffffffffffffffffffffffffffffffff163373ffffffffffffffffffffffffffffffffffffffff16146107f6576040517f5fc483c500000000000000000000000000000000000000000000000000000000815260040160405180910390fd5b80600380600481111561080c5761080b611e0e565b5b6002600084815260200190815260200160002060040160149054906101000a900460ff16600481111561084257610841611e0e565b5b03610879576040517fbaf3f0f700000000000000000000000000000000000000000000000000000000815260040160405180910390fd5b82600480600481111561088f5761088e611e0e565b5b6002600084815260200190815260200160002060040160149054906101000a900460ff1660048111156108c5576108c4611e0e565b5b036108fc576040517fbaf3f0f700000000000000000000000000000000000000000000000000000000815260040160405180910390fd5b84600280600481111561091257610911611e0e565b5b6002600084815260200190815260200160002060040160149054906101000a900460ff16600481111561094857610947611e0e565b5b0361097f576040517fbaf3f0f700000000000000000000000000000000000000000000000000000000815260040160405180910390fd5b6002600088815260200190815260200160002060040160009054906101000a900473ffffffffffffffffffffffffffffffffffffffff1673ffffffffffffffffffffffffffffffffffffffff166108fc600260008a8152602001908152602001600020600101549081150290604051600060405180830381858888f19350505050158015610a11573d6000803e3d6000fd5b5060036002600089815260200190815260200160002060040160146101000a81548160ff02191690836004811115610a4c57610a4b611e0e565b5b021790555050505050505050565b6060816000806004811115610a7257610a71611e0e565b5b6002600084815260200190815260200160002060040160149054906101000a900460ff166004811115610aa857610aa7611e0e565b5b14610adf576040517fbaf3f0f700000000000000000000000000000000000000000000000000000000815260040160405180910390fd5b836002600082815260200190815260200160002060030160009054906101000a900473ffffffffffffffffffffffffffffffffffffffff1673ffffffffffffffffffffffffffffffffffffffff163373ffffffffffffffffffffffffffffffffffffffff1614610b7b576040517f85d1f72600000000000000000000000000000000000000000000000000000000815260040160405180910390fd5b846002600087815260200190815260200160002060030160009054906101000a900473ffffffffffffffffffffffffffffffffffffffff1673ffffffffffffffffffffffffffffffffffffffff167fa29484a0d47153a96f00a1369c6885bbc89e95e35273ee97c943c440f7c4c28260405160405180910390a360016002600087815260200190815260200160002060040160146101000a81548160ff02191690836004811115610c2f57610c2e611e0e565b5b0217905550610c44610c3f611a3d565b611a96565b9350505050919050565b806002600082815260200190815260200160002060030160009054906101000a900473ffffffffffffffffffffffffffffffffffffffff1673ffffffffffffffffffffffffffffffffffffffff163373ffffffffffffffffffffffffffffffffffffffff1614610cea576040517f85d1f72600000000000000000000000000000000000000000000000000000000815260040160405180910390fd5b816000806004811115610d0057610cff611e0e565b5b6002600084815260200190815260200160002060040160149054906101000a900460ff166004811115610d3657610d35611e0e565b5b03610d6d576040517fbaf3f0f700000000000000000000000000000000000000000000000000000000815260040160405180910390fd5b836004806004811115610d8357610d82611e0e565b5b6002600084815260200190815260200160002060040160149054906101000a900460ff166004811115610db957610db8611e0e565b5b03610df0576040517fbaf3f0f700000000000000000000000000000000000000000000000000000000815260040160405180910390fd5b856003806004811115610e0657610e05611e0e565b5b6002600084815260200190815260200160002060040160149054906101000a900460ff166004811115610e3c57610e3b611e0e565b5b03610e73576040517fbaf3f0f700000000000000000000000000000000000000000000000000000000815260040160405180910390fd5b87600260008a815260200190815260200160002060030160009054906101000a900473ffffffffffffffffffffffffffffffffffffffff1673ffffffffffffffffffffffffffffffffffffffff16600260008b815260200190815260200160002060040160009054906101000a900473ffffffffffffffffffffffffffffffffffffffff1673ffffffffffffffffffffffffffffffffffffffff167f50fb19abc4d4b87ffc2d12aecffb17966aa389ed298865c721605f5cb5ff07b560405160405180910390a46000600260008a815260200190815260200160002060040160146101000a81548160ff02191690836004811115610f7457610f73611e0e565b5b02179055505050505050505050565b806002600082815260200190815260200160002060030160009054906101000a900473ffffffffffffffffffffffffffffffffffffffff1673ffffffffffffffffffffffffffffffffffffffff163373ffffffffffffffffffffffffffffffffffffffff161461101f576040517f85d1f72600000000000000000000000000000000000000000000000000000000815260040160405180910390fd5b81600180600481111561103557611034611e0e565b5b6002600084815260200190815260200160002060040160149054906101000a900460ff16600481111561106b5761106a611e0e565b5b146110a2576040517fbaf3f0f700000000000000000000000000000000000000000000000000000000815260040160405180910390fd5b600260008581526020019081526020016000206005016040516110c591906122d9565b60405180910390206002600086815260200190815260200160002060030160009054906101000a900473ffffffffffffffffffffffffffffffffffffffff1673ffffffffffffffffffffffffffffffffffffffff1660008054906101000a900473ffffffffffffffffffffffffffffffffffffffff1673ffffffffffffffffffffffffffffffffffffffff167f17402b2feb843a353f09e127700c855e919735ed77fc2d065a9fab332518e75260405160405180910390a460006002600086815260200190815260200160002060040160146101000a81548160ff021916908360048111156111b7576111b6611e0e565b5b021790555050505050565b600034905060008054906101000a900473ffffffffffffffffffffffffffffffffffffffff1673ffffffffffffffffffffffffffffffffffffffff166108fc829081150290604051600060405180830381858888f1935050505015801561122d573d6000803e3d6000fd5b506040518060e0016040528060035481526020018281526020016040518060200160405280600081525081526020013373ffffffffffffffffffffffffffffffffffffffff1681526020018373ffffffffffffffffffffffffffffffffffffffff168152602001600060048111156112a8576112a7611e0e565b5b815260200184815250600260006003548152602001908152602001600020600082015181600001556020820151816001015560408201518160020190816112ef9190612487565b5060608201518160030160006101000a81548173ffffffffffffffffffffffffffffffffffffffff021916908373ffffffffffffffffffffffffffffffffffffffff16021790555060808201518160040160006101000a81548173ffffffffffffffffffffffffffffffffffffffff021916908373ffffffffffffffffffffffffffffffffffffffff16021790555060a08201518160040160146101000a81548160ff021916908360048111156113a9576113a8611e0e565b5b021790555060c08201518160050190816113c39190612487565b509050506003548273ffffffffffffffffffffffffffffffffffffffff163373ffffffffffffffffffffffffffffffffffffffff167f99140ca40f59d97ea1fdcdadea0c2062a37a1d64b850f67518a8c609cd1bdd1060405160405180910390a46003600081548092919061143790612588565b9190505550505050565b60008054906101000a900473ffffffffffffffffffffffffffffffffffffffff1673ffffffffffffffffffffffffffffffffffffffff163373ffffffffffffffffffffffffffffffffffffffff16146114c6576040517f5fc483c500000000000000000000000000000000000000000000000000000000815260040160405180910390fd5b8060028060048111156114dc576114db611e0e565b5b6002600084815260200190815260200160002060040160149054906101000a900460ff16600481111561151257611511611e0e565b5b14611549576040517fbaf3f0f700000000000000000000000000000000000000000000000000000000815260040160405180910390fd5b6002600084815260200190815260200160002060030160009054906101000a900473ffffffffffffffffffffffffffffffffffffffff1673ffffffffffffffffffffffffffffffffffffffff166108fc606460015460646115aa91906125d0565b60026000888152602001908152602001600020600101546115cb9190612604565b6115d59190612675565b9081150290604051600060405180830381858888f19350505050158015611600573d6000803e3d6000fd5b50826002600085815260200190815260200160002060030160009054906101000a900473ffffffffffffffffffffffffffffffffffffffff1673ffffffffffffffffffffffffffffffffffffffff166002600086815260200190815260200160002060040160009054906101000a900473ffffffffffffffffffffffffffffffffffffffff1673ffffffffffffffffffffffffffffffffffffffff167fef45f4f35e1bd06aa80c6b80b30a4680eecb1ab4cbda94dcf9a2e8713e8d212d60405160405180910390a460046002600085815260200190815260200160002060040160146101000a81548160ff0219169083600481111561170257611701611e0e565b5b0217905550505050565b60008060009054906101000a900473ffffffffffffffffffffffffffffffffffffffff1673ffffffffffffffffffffffffffffffffffffffff163373ffffffffffffffffffffffffffffffffffffffff1614611794576040517f5fc483c500000000000000000000000000000000000000000000000000000000815260040160405180910390fd5b8160018190555060019050919050565b806002600082815260200190815260200160002060040160009054906101000a900473ffffffffffffffffffffffffffffffffffffffff1673ffffffffffffffffffffffffffffffffffffffff163373ffffffffffffffffffffffffffffffffffffffff1614611840576040517f86efbb5500000000000000000000000000000000000000000000000000000000815260040160405180910390fd5b81600380600481111561185657611855611e0e565b5b6002600084815260200190815260200160002060040160149054906101000a900460ff16600481111561188c5761188b611e0e565b5b036118c3576040517fbaf3f0f700000000000000000000000000000000000000000000000000000000815260040160405180910390fd5b8360048060048111156118d9576118d8611e0e565b5b6002600084815260200190815260200160002060040160149054906101000a900460ff16600481111561190f5761190e611e0e565b5b03611946576040517fbaf3f0f700000000000000000000000000000000000000000000000000000000815260040160405180910390fd5b85600280600481111561195c5761195b611e0e565b5b6002600084815260200190815260200160002060040160149054906101000a900460ff16600481111561199257611991611e0e565b5b036119c9576040517fbaf3f0f700000000000000000000000000000000000000000000000000000000815260040160405180910390fd5b8760008054906101000a900473ffffffffffffffffffffffffffffffffffffffff1673ffffffffffffffffffffffffffffffffffffffff167fe271f2568f26d095eb9170a2d03d7296e0138d2d407895cb975deb644e2fe07860405160405180910390a35050505050505050565b60035481565b600061271061038d60644233604051602001611a5a92919061270f565b6040516020818303038152906040528051906020012060001c611a7d919061273b565b611a879190612604565b611a91919061276c565b905090565b606060006001611aa584611b64565b01905060008167ffffffffffffffff811115611ac457611ac3611f0c565b5b6040519080825280601f01601f191660200182016040528015611af65781602001600182028036833780820191505090505b509050600082602001820190505b600115611b59578080600190039150507f3031323334353637383961626364656600000000000000000000000000000000600a86061a8153600a8581611b4d57611b4c612646565b5b04945060008503611b04575b819350505050919050565b600080600090507a184f03e93ff9f4daa797ed6e38ed64bf6a1f0100000000000000008310611bc2577a184f03e93ff9f4daa797ed6e38ed64bf6a1f0100000000000000008381611bb857611bb7612646565b5b0492506040810190505b6d04ee2d6d415b85acef81000000008310611bff576d04ee2d6d415b85acef81000000008381611bf557611bf4612646565b5b0492506020810190505b662386f26fc100008310611c2e57662386f26fc100008381611c2457611c23612646565b5b0492506010810190505b6305f5e1008310611c57576305f5e1008381611c4d57611c4c612646565b5b0492506008810190505b6127108310611c7c576127108381611c7257611c71612646565b5b0492506004810190505b60648310611c9f5760648381611c9557611c94612646565b5b0492506002810190505b600a8310611cae576001810190505b80915050919050565b6000604051905090565b600080fd5b600080fd5b6000819050919050565b611cde81611ccb565b8114611ce957600080fd5b50565b600081359050611cfb81611cd5565b92915050565b600060208284031215611d1757611d16611cc1565b5b6000611d2584828501611cec565b91505092915050565b611d3781611ccb565b82525050565b600081519050919050565b600082825260208201905092915050565b60005b83811015611d77578082015181840152602081019050611d5c565b60008484015250505050565b6000601f19601f8301169050919050565b6000611d9f82611d3d565b611da98185611d48565b9350611db9818560208601611d59565b611dc281611d83565b840191505092915050565b600073ffffffffffffffffffffffffffffffffffffffff82169050919050565b6000611df882611dcd565b9050919050565b611e0881611ded565b82525050565b7f4e487b7100000000000000000000000000000000000000000000000000000000600052602160045260246000fd5b60058110611e4e57611e4d611e0e565b5b50565b6000819050611e5f82611e3d565b919050565b6000611e6f82611e51565b9050919050565b611e7f81611e64565b82525050565b600060e082019050611e9a600083018a611d2e565b611ea76020830189611d2e565b8181036040830152611eb98188611d94565b9050611ec86060830187611dff565b611ed56080830186611dff565b611ee260a0830185611e76565b81810360c0830152611ef48184611d94565b905098975050505050505050565b600080fd5b600080fd5b7f4e487b7100000000000000000000000000000000000000000000000000000000600052604160045260246000fd5b611f4482611d83565b810181811067ffffffffffffffff82111715611f6357611f62611f0c565b5b80604052505050565b6000611f76611cb7565b9050611f828282611f3b565b919050565b600067ffffffffffffffff821115611fa257611fa1611f0c565b5b611fab82611d83565b9050602081019050919050565b82818337600083830152505050565b6000611fda611fd584611f87565b611f6c565b905082815260208101848484011115611ff657611ff5611f07565b5b612001848285611fb8565b509392505050565b600082601f83011261201e5761201d611f02565b5b813561202e848260208601611fc7565b91505092915050565b6000806040838503121561204e5761204d611cc1565b5b600061205c85828601611cec565b925050602083013567ffffffffffffffff81111561207d5761207c611cc6565b5b61208985828601612009565b9150509250929050565b600060208201905081810360008301526120ad8184611d94565b905092915050565b6120be81611ded565b81146120c957600080fd5b50565b6000813590506120db816120b5565b92915050565b600080604083850312156120f8576120f7611cc1565b5b600083013567ffffffffffffffff81111561211657612115611cc6565b5b61212285828601612009565b9250506020612133858286016120cc565b9150509250929050565b60008115159050919050565b6121528161213d565b82525050565b600060208201905061216d6000830184612149565b92915050565b60006020820190506121886000830184611d2e565b92915050565b7f4e487b7100000000000000000000000000000000000000000000000000000000600052602260045260246000fd5b600060028204905060018216806121d557607f821691505b6020821081036121e8576121e761218e565b5b50919050565b600081905092915050565b600061220482611d3d565b61220e81856121ee565b935061221e818560208601611d59565b80840191505092915050565b600061223682846121f9565b915081905092915050565b60008190508160005260206000209050919050565b60008154612263816121bd565b61226d81866121ee565b94506001821660008114612288576001811461229d576122d0565b60ff19831686528115158202860193506122d0565b6122a685612241565b60005b838110156122c8578154818901526001820191506020810190506122a9565b838801955050505b50505092915050565b60006122e58284612256565b915081905092915050565b60006020601f8301049050919050565b600082821b905092915050565b60006008830261233d7fffffffffffffffffffffffffffffffffffffffffffffffffffffffffffffffff82612300565b6123478683612300565b95508019841693508086168417925050509392505050565b6000819050919050565b600061238461237f61237a84611ccb565b61235f565b611ccb565b9050919050565b6000819050919050565b61239e83612369565b6123b26123aa8261238b565b84845461230d565b825550505050565b600090565b6123c76123ba565b6123d2818484612395565b505050565b5b818110156123f6576123eb6000826123bf565b6001810190506123d8565b5050565b601f82111561243b5761240c81612241565b612415846122f0565b81016020851015612424578190505b612438612430856122f0565b8301826123d7565b50505b505050565b600082821c905092915050565b600061245e60001984600802612440565b1980831691505092915050565b6000612477838361244d565b9150826002028217905092915050565b61249082611d3d565b67ffffffffffffffff8111156124a9576124a8611f0c565b5b6124b382546121bd565b6124be8282856123fa565b600060209050601f8311600181146124f157600084156124df578287015190505b6124e9858261246b565b865550612551565b601f1984166124ff86612241565b60005b8281101561252757848901518255600182019150602085019450602081019050612502565b868310156125445784890151612540601f89168261244d565b8355505b6001600288020188555050505b505050505050565b7f4e487b7100000000000000000000000000000000000000000000000000000000600052601160045260246000fd5b600061259382611ccb565b91507fffffffffffffffffffffffffffffffffffffffffffffffffffffffffffffffff82036125c5576125c4612559565b5b600182019050919050565b60006125db82611ccb565b91506125e683611ccb565b92508282039050818111156125fe576125fd612559565b5b92915050565b600061260f82611ccb565b915061261a83611ccb565b925082820261262881611ccb565b9150828204841483151761263f5761263e612559565b5b5092915050565b7f4e487b7100000000000000000000000000000000000000000000000000000000600052601260045260246000fd5b600061268082611ccb565b915061268b83611ccb565b92508261269b5761269a612646565b5b828204905092915050565b6000819050919050565b6126c16126bc82611ccb565b6126a6565b82525050565b60008160601b9050919050565b60006126df826126c7565b9050919050565b60006126f1826126d4565b9050919050565b61270961270482611ded565b6126e6565b82525050565b600061271b82856126b0565b60208201915061272b82846126f8565b6014820191508190509392505050565b600061274682611ccb565b915061275183611ccb565b92508261276157612760612646565b5b828206905092915050565b600061277782611ccb565b915061278283611ccb565b925082820190508082111561279a57612799612559565b5b9291505056fea26469706673582212209a2729f2f52cb26c1f3580ea317edb7aa903dc14ddd58a975cddfaac8f10ca2d64736f6c63430008120033",
  "linkReferences": {},
  "deployedLinkReferences": {}
}